S0100000506F73746C6162362E7372656309
S11300000C9434000C9451000C9451000C94510045
S11300100C9451000C9451000C9451000C94510018
S11300200C9451000C9451000C9451000C94510008
S11300300C9451000C9451000C9451000C945100F8
S11300400C9451000C9451000C9490000C945100A9
S11300500C9451000C9449010C9451000C945100DF
S11300600C9451000C94510011241FBECFEFD8E022
S1130070DEBFCDBF11E0A0E0B1E0ECE0F3E002C0F0
S113008005900D92AE35B107D9F721E0AEE5B1E0A8
S113009001C01D92A236B207E1F70E9426010C941A
S11300A084010C9400008AB18E7F8AB98AB182607F
S11300B08AB9E0ECF0E01082808182608083E1EC18
S11300C0F0E01082808188698083E2ECF0E01082A5
S11300D08081866080838FEC90E09093C50080934C
S11300E0C4000895AC0120E007C09091C00095FFC2
S11300F0FCCF3093C6002F5FFA01E20FF11D30816F
S11301003111F3CF089580E091E00E94720080E104
S113011091E00E94720087E291E00E9472000895CB
S11301201F920F920FB60F9211242F933F934F9368
S11301305F936F937F938F939F93AF93BF93EF934B
S1130140FF93CF93DF931F92CDB7DEB78091C600A4
S1130150809361018091C00085FFFCCF8091610193
S11301608983CE0101960E945E0180935F01909184
S11301705E0191112AC0813019F0823079F022C0D9
S113018081E080936001809161018093C60088E3DF
S113019091E00E9472000E94830026C010926001C8
S11301A081E080935E01809161018093C6008BE3BE
S11301B091E00E94720088E391E00E9472001BB8F3
S11301C015B812C0109260010FC010925E018091A8
S11301D061018093C6008091610185B980916101BC
S11301E0807C8BB90E9483000F90DF91CF91FF91A7
S11301F0EF91BF91AF919F918F917F916F915F919B
S11302004F913F912F910F900FBE0F901F90189513
S1130210ECE7F0E0108280818064808380818F77B6
S11302208083808180628083EAE7F0E010828081AD
S113023080688083808188608083808187608083F8
S1130240EEE7F0E08081816080830895F89480EC8B
S11302508AB98FEF84B987B18E7F87B90E94530022
S11302600E94080178940E9483008091600181308B
S113027069F4EAE7F0E0808180648083E9E7F0E0F4
S1130280808185B98081807C8BB9EFCF1092600129
S1130290ECCF1F920F920FB60F9211248F93EF930E
S11302A0FF93EAE7F0E0808180618083FF91EF9122
S11302B08F910F900FBE0F901F901895FC01882707
S11302C09927E89421912032E9F3293010F02E3057
S11302D0C8F32B3241F02D3239F4689404C00E94E3
S11302E07C01820F911D219120532A30C0F31EF40A
S11302F0909581959F4F08957AE0979F902D879FC1
S10F0300802D910D11240895F894FFCF76
S113030C0A0A0A2020204F5043494F4E45530A00F5
S113031C312E204C65657220706F74656E6369F3C1
S113032C6D6574726F0A00322E20456E76696172A7
S113033C2041534349490A000A0A000A506F7220AB
S113034C6661766F722073656C656363696F6F6E3B
S111035C6520756E20636172616374657200C2
S9030000FC
